:0600000000308A00B82860
:10000800FC0003088301DF007008E2007108E300C8
:100018007208E0007308E1007030830181000B1161
:1000280005102D082C0403191D28AC080319AD036D
:08003800AC0331083004031988
:100040002528B0080319B103B00335083404031997
:100050002D28B4080319B503B4032F082E0403197F
:100060003828AE0A0319AF0A1030B4002730B500A3
:10007000861D3C28AE01AF01861D061C46282F08B0
:100080002E04031D4628AE01AE0AAF01861D0618D8
:100090006F282F082E0403196F2803302F02E93030
:1000A00003192E021330031C5E282F028830031917
:1000B0002E0203185D28A801A80A13302F028930E8
:1000C00003192E02031C6D283A302F0298300319B1
:1000D0002E0203186D28A901A90AAE01AF01390843
:1000E00038043704360403198F28360337043804DC
:1000F0003904031D7D28A901A90A0130F000F1018E
:10010000F201F301B6027108031C710FB702720805
:10011000031C720FB8027308031C730AB9023D086E
:100120003C043B043A040319A7280130F000F10114
:10013000F201F301BA027108031C710FBB027208CD
:10014000031C720FBC027308031C730ABD02B20ABF
:100150000319B30A05146208F0006308F10060088F
:10016000F2006108F3005F088300FC0E7C0E0900BA
:10017000203084005F30C020022904068001840AF8
:100180000406031DBD286400003484017008F800D3
:100190007108F9007208FA007308FB00F201F3011C
:1001A000F001F1010310FB0CFA0CF90CF80C031C24
:1001B000E7287408F00775080318750FF10776082B
:1001C0000318760FF20777080318770FF3077808FC
:1001D00079047A047B040319F3280310F40DF50D58
:1001E000F60DF70DD2288408031900347308800037
:1001F00084037208800084037108800084037008FF
:1002000080000034FF30831203138500FE30831614
:100210008500FF3083128600FB3083168600831230
:100220008C0183168C01073083129F008430831663
:1002300081007730990060309800D03083129800A8
:100240001A08A7001A08A7001A08A7000B11703097
:100250008100A0308B002010AC01AD01B001B101D4
:10026000AE01AF011030B4002730B500B601B701C0
:10027000B801B901BA01BB01BC01BD01A801A901C6
:10028000640035083404031D4F2963000000861DF7
:10029000061C40291030B4002730B5004029280B37
:1002A0005B298B018B1B512983120313A801A030FA
:1002B0008B000F30AF223908380437043604031D91
:1002C00066293D083C043B043A04031DE82231083A
:1002D000300403192018A52900303902031D7A299A
:1002E00000303802031D7A2900303702031D7A29B5
:1002F00003303602031C88298B018B1B7C29831257
:100300000313B601B60AB701B801B901A0308B00DA
:1003100000303D02031D962900303C02031D962942
:1003200003303B02031D9629EA303A02031CA5293B
:100330008B018B1B9829E83083120313BA0003301A
:10034000BB00BC01BD01A0308B00290B40298B01F3
:100350008B1BA72983120313A901B601B701B801AA
:10036000B901E030BA009330BB00FF30BC00BD00E3
:10037000B001B101A0308B006F2340298301DB0065
:10038000BE01BF01C001C101C201C301C401C50159
:10039000C601C701A101B201B3014423003803190A
:1003A000DA292108483E8400831326088000A10A28
:1003B000B201B30101303302F430031932020318E1
:1003C000E5290F302102031CCD29A1080319FA34B5
:1003D0002108DC00DD0148306023F000F1017104E8
:1003E000031DFA3448084F3A031DFA345B0880387D
:1003F0004A060319FD29A501F0344908FE3EF00024
:100400005A087002A5005A08033EA100A30125085E
:100410002302031800342108483E84008313000897
:10042000F00023083E3E8400831370088000A30A76
:10043000A10A072A8301D900AB01AB080319292AB5
:100440008830AC001330AD0064002D082C04031D6F
:10045000242AAA01AA080319362AE830AC0003307E
:10046000AD0064002D082C04031D312A1030B400A7
:100470002730B500981306111930AC00AD016400A7
:100480002D082C04031D3F2A061598171930AC00BF
:10049000AD0164002D082C04031D492A5908682267
:1004A0005808DA005908BE21A400AA0A0A302A0214
:1004B00003185E2A2408FA3A03192A2AAB0A0A30DA
:1004C0002B02031808002408F03A031D08001D2A17
:1004D0008301DA00F430C8002508023EC9005A083A
:1004E000CA00A3010330A100832A23083E3E8400F2
:1004F00083130008F0002108483E8400831370082D
:100500008000A30AA10A25082302031C752A2108DA
:10051000DC00DD0148306023F0002108483E840003
:10052000831370088000A10AA30121082302031885
:10053000A22A2308483E8400831300081E23A30A2E
:10054000952A64008316981CA12A831218121A088F
:10055000A7001A08A7001A08A700181608008301A8
:10056000D700BE00A501A50AD80121301A22A4088F
:10057000031D08008B018B1BBA2A6030F400EA309F
:10058000F500F601F701831203135708F000F1019B
:10059000F201F301C52002307007B600B7017108FF
:1005A0000318710FB707B80172080318720FB80764
:1005B000B90173080318730FB907BA01BB01BC0175
:1005C000BD012030B0004E30B100A0308B000800DB
:1005D00021308301BE00BF010230A500D8014430A4
:1005E0001A22A408031D08000F30BE00A501A50AA9
:1005F000D801D80A50301A22A408031D0800201080
:10060000C208031D20140530BE00A501A50AD801AB
:10061000D80A50301A22A408031D080039083804EB
:1006200037043604031908003E087D3A031D08000C
:100630000230B600B701B801B90108008301DB0040
:100640006400A7015B18A70ADB18A70A5B19A70AB1
:10065000DB19A70A5B1AA70ADB1AA70A5B1BA70A02
:10066000DB1BA70A83169818372B6400322B8312E2
:10067000270C8316031C3E2B18143F2B18108312D3
:1006800003135B08990008006400831203138C1E97
:100690000034981C542B18121A08A7001A08A70037
:1006A0001A08A70018160034181D5D2B1A08A70099
:1006B0001A08A7001A08A70000341A08A600013477
:1006C0008301DE00DC0803196D2B5E0884008313B0
:1006D0000008DD06DE0ADC0B652B5D0808008301DF
:0806E000A501D80110301A2A0F
:02400E00461F4B
:00000001FF
